{
	"contracts/flitcoin.sol": {
		"Flitcoin_ICO": {
			"abi": [
				{
					"inputs": [
						{
							"internalType": "address",
							"name": "investor",
							"type": "address"
						},
						{
							"internalType": "uint256",
							"name": "usd_invested",
							"type": "uint256"
						}
					],
					"name": "buy_flitcoins",
					"outputs": [],
					"stateMutability": "nonpayable",
					"type": "function"
				},
				{
					"inputs": [
						{
							"internalType": "address",
							"name": "investor",
							"type": "address"
						}
					],
					"name": "equity_in_flitcoins",
					"outputs": [
						{
							"internalType": "uint256",
							"name": "",
							"type": "uint256"
						}
					],
					"stateMutability": "view",
					"type": "function"
				},
				{
					"inputs": [
						{
							"internalType": "address",
							"name": "investor",
							"type": "address"
						}
					],
					"name": "equity_in_usd",
					"outputs": [
						{
							"internalType": "uint256",
							"name": "",
							"type": "uint256"
						}
					],
					"stateMutability": "view",
					"type": "function"
				},
				{
					"inputs": [],
					"name": "max_flitcoins",
					"outputs": [
						{
							"internalType": "uint256",
							"name": "",
							"type": "uint256"
						}
					],
					"stateMutability": "view",
					"type": "function"
				},
				{
					"inputs": [
						{
							"internalType": "address",
							"name": "investor",
							"type": "address"
						},
						{
							"internalType": "uint256",
							"name": "flitcoins_sold",
							"type": "uint256"
						}
					],
					"name": "sell_flitcoins",
					"outputs": [],
					"stateMutability": "nonpayable",
					"type": "function"
				},
				{
					"inputs": [],
					"name": "total_flitcoins_bought",
					"outputs": [
						{
							"internalType": "uint256",
							"name": "",
							"type": "uint256"
						}
					],
					"stateMutability": "view",
					"type": "function"
				},
				{
					"inputs": [],
					"name": "usd_to_flitcoins",
					"outputs": [
						{
							"internalType": "uint256",
							"name": "",
							"type": "uint256"
						}
					],
					"stateMutability": "view",
					"type": "function"
				}
			],
			"devdoc": {
				"kind": "dev",
				"methods": {},
				"version": 1
			},
			"evm": {
				"assembly": "    /* \"contracts/flitcoin.sol\":92:2959  contract Flitcoin_ICO {... */\n  mstore(0x40, 0x80)\n    /* \"contracts/flitcoin.sol\":194:201  1000000 */\n  0x0f4240\n    /* \"contracts/flitcoin.sol\":166:201  uint public max_flitcoins = 1000000 */\n  0x00\n  sstore\n    /* \"contracts/flitcoin.sol\":282:286  1000 */\n  0x03e8\n    /* \"contracts/flitcoin.sol\":251:286  uint public usd_to_flitcoins = 1000 */\n  0x01\n  sstore\n    /* \"contracts/flitcoin.sol\":390:391  0 */\n  0x00\n    /* \"contracts/flitcoin.sol\":353:391  uint public total_flitcoins_bought = 0 */\n  0x02\n  sstore\n    /* \"contracts/flitcoin.sol\":92:2959  contract Flitcoin_ICO {... */\n  callvalue\n  dup1\n  iszero\n  tag_1\n  jumpi\n  0x00\n  dup1\n  revert\ntag_1:\n  pop\n  dataSize(sub_0)\n  dup1\n  dataOffset(sub_0)\n  0x00\n  codecopy\n  0x00\n  return\nstop\n\nsub_0: assembly {\n        /* \"contracts/flitcoin.sol\":92:2959  contract Flitcoin_ICO {... */\n      mstore(0x40, 0x80)\n      callvalue\n      dup1\n      iszero\n      tag_1\n      jumpi\n      0x00\n      dup1\n      revert\n    tag_1:\n      pop\n      jumpi(tag_2, lt(calldatasize, 0x04))\n      shr(0xe0, calldataload(0x00))\n      dup1\n      0x4f99b9b0\n      gt\n      tag_10\n      jumpi\n      dup1\n      0x4f99b9b0\n      eq\n      tag_6\n      jumpi\n      dup1\n      0x85a60ba3\n      eq\n      tag_7\n      jumpi\n      dup1\n      0xcb739c3b\n      eq\n      tag_8\n      jumpi\n      dup1\n      0xe5a408fd\n      eq\n      tag_9\n      jumpi\n      jump(tag_2)\n    tag_10:\n      dup1\n      0x10c51c1b\n      eq\n      tag_3\n      jumpi\n      dup1\n      0x126cc9e2\n      eq\n      tag_4\n      jumpi\n      dup1\n      0x26e880d4\n      eq\n      tag_5\n      jumpi\n    tag_2:\n      0x00\n      dup1\n      revert\n        /* \"contracts/flitcoin.sol\":1429:1542  function equity_in_usd(address investor) external view returns(uint) {... */\n    tag_3:\n      tag_11\n      0x04\n      dup1\n      calldatasize\n      sub\n      dup2\n      add\n      swap1\n      tag_12\n      swap2\n      swap1\n      tag_13\n      jump\t// in\n    tag_12:\n      tag_14\n      jump\t// in\n    tag_11:\n      mload(0x40)\n      tag_15\n      swap2\n      swap1\n      tag_16\n      jump\t// in\n    tag_15:\n      mload(0x40)\n      dup1\n      swap2\n      sub\n      swap1\n      return\n        /* \"contracts/flitcoin.sol\":251:286  uint public usd_to_flitcoins = 1000 */\n    tag_4:\n      tag_17\n      tag_18\n      jump\t// in\n    tag_17:\n      mload(0x40)\n      tag_19\n      swap2\n      swap1\n      tag_16\n      jump\t// in\n    tag_19:\n      mload(0x40)\n      dup1\n      swap2\n      sub\n      swap1\n      return\n        /* \"contracts/flitcoin.sol\":1131:1368  function equity_in_flitcoins(address investor) external view returns(uint) { //'external constant' lo ponemos porque no es particular de nuestro smart contract, viene de una fuerza externa... */\n    tag_5:\n      tag_20\n      0x04\n      dup1\n      calldatasize\n      sub\n      dup2\n      add\n      swap1\n      tag_21\n      swap2\n      swap1\n      tag_13\n      jump\t// in\n    tag_21:\n      tag_22\n      jump\t// in\n    tag_20:\n      mload(0x40)\n      tag_23\n      swap2\n      swap1\n      tag_16\n      jump\t// in\n    tag_23:\n      mload(0x40)\n      dup1\n      swap2\n      sub\n      swap1\n      return\n        /* \"contracts/flitcoin.sol\":353:391  uint public total_flitcoins_bought = 0 */\n    tag_6:\n      tag_24\n      tag_25\n      jump\t// in\n    tag_24:\n      mload(0x40)\n      tag_26\n      swap2\n      swap1\n      tag_16\n      jump\t// in\n    tag_26:\n      mload(0x40)\n      dup1\n      swap2\n      sub\n      swap1\n      return\n        /* \"contracts/flitcoin.sol\":2445:2956  function sell_flitcoins(address investor, uint flitcoins_sold) external {... */\n    tag_7:\n      tag_27\n      0x04\n      dup1\n      calldatasize\n      sub\n      dup2\n      add\n      swap1\n      tag_28\n      swap2\n      swap1\n      tag_29\n      jump\t// in\n    tag_28:\n      tag_30\n      jump\t// in\n    tag_27:\n      stop\n        /* \"contracts/flitcoin.sol\":166:201  uint public max_flitcoins = 1000000 */\n    tag_8:\n      tag_31\n      tag_32\n      jump\t// in\n    tag_31:\n      mload(0x40)\n      tag_33\n      swap2\n      swap1\n      tag_16\n      jump\t// in\n    tag_33:\n      mload(0x40)\n      dup1\n      swap2\n      sub\n      swap1\n      return\n        /* \"contracts/flitcoin.sol\":1571:2416  function buy_flitcoins(address investor, uint usd_invested) external can_buy_flitcoins(usd_invested) { //antes de entrar a la función usamos el modificador para verificar si el accionista puede comprar flitcoins tomando como parámetro el usd_invested... */\n    tag_9:\n      tag_34\n      0x04\n      dup1\n      calldatasize\n      sub\n      dup2\n      add\n      swap1\n      tag_35\n      swap2\n      swap1\n      tag_29\n      jump\t// in\n    tag_35:\n      tag_36\n      jump\t// in\n    tag_34:\n      stop\n        /* \"contracts/flitcoin.sol\":1429:1542  function equity_in_usd(address investor) external view returns(uint) {... */\n    tag_14:\n        /* \"contracts/flitcoin.sol\":1492:1496  uint */\n      0x00\n        /* \"contracts/flitcoin.sol\":1515:1525  equity_usd */\n      0x04\n        /* \"contracts/flitcoin.sol\":1515:1535  equity_usd[investor] */\n      0x00\n        /* \"contracts/flitcoin.sol\":1526:1534  investor */\n      dup4\n        /* \"contracts/flitcoin.sol\":1515:1535  equity_usd[investor] */\n      0xffffffffffffffffffffffffffffffffffffffff\n      and\n      0xffffffffffffffffffffffffffffffffffffffff\n      and\n      dup2\n      mstore\n      0x20\n      add\n      swap1\n      dup2\n      mstore\n      0x20\n      add\n      0x00\n      keccak256\n      sload\n        /* \"contracts/flitcoin.sol\":1508:1535  return equity_usd[investor] */\n      swap1\n      pop\n        /* \"contracts/flitcoin.sol\":1429:1542  function equity_in_usd(address investor) external view returns(uint) {... */\n      swap2\n      swap1\n      pop\n      jump\t// out\n        /* \"contracts/flitcoin.sol\":251:286  uint public usd_to_flitcoins = 1000 */\n    tag_18:\n      sload(0x01)\n      dup2\n      jump\t// out\n        /* \"contracts/flitcoin.sol\":1131:1368  function equity_in_flitcoins(address investor) external view returns(uint) { //'external constant' lo ponemos porque no es particular de nuestro smart contract, viene de una fuerza externa... */\n    tag_22:\n        /* \"contracts/flitcoin.sol\":1200:1204  uint */\n      0x00\n        /* \"contracts/flitcoin.sol\":1335:1351  equity_flitcoins */\n      0x03\n        /* \"contracts/flitcoin.sol\":1335:1361  equity_flitcoins[investor] */\n      0x00\n        /* \"contracts/flitcoin.sol\":1352:1360  investor */\n      dup4\n        /* \"contracts/flitcoin.sol\":1335:1361  equity_flitcoins[investor] */\n      0xffffffffffffffffffffffffffffffffffffffff\n      and\n      0xffffffffffffffffffffffffffffffffffffffff\n      and\n      dup2\n      mstore\n      0x20\n      add\n      swap1\n      dup2\n      mstore\n      0x20\n      add\n      0x00\n      keccak256\n      sload\n        /* \"contracts/flitcoin.sol\":1328:1361  return equity_flitcoins[investor] */\n      swap1\n      pop\n        /* \"contracts/flitcoin.sol\":1131:1368  function equity_in_flitcoins(address investor) external view returns(uint) { //'external constant' lo ponemos porque no es particular de nuestro smart contract, viene de una fuerza externa... */\n      swap2\n      swap1\n      pop\n      jump\t// out\n        /* \"contracts/flitcoin.sol\":353:391  uint public total_flitcoins_bought = 0 */\n    tag_25:\n      sload(0x02)\n      dup2\n      jump\t// out\n        /* \"contracts/flitcoin.sol\":2445:2956  function sell_flitcoins(address investor, uint flitcoins_sold) external {... */\n    tag_30:\n        /* \"contracts/flitcoin.sol\":2638:2652  flitcoins_sold */\n      dup1\n        /* \"contracts/flitcoin.sol\":2608:2624  equity_flitcoins */\n      0x03\n        /* \"contracts/flitcoin.sol\":2608:2634  equity_flitcoins[investor] */\n      0x00\n        /* \"contracts/flitcoin.sol\":2625:2633  investor */\n      dup5\n        /* \"contracts/flitcoin.sol\":2608:2634  equity_flitcoins[investor] */\n      0xffffffffffffffffffffffffffffffffffffffff\n      and\n      0xffffffffffffffffffffffffffffffffffffffff\n      and\n      dup2\n      mstore\n      0x20\n      add\n      swap1\n      dup2\n      mstore\n      0x20\n      add\n      0x00\n      keccak256\n      0x00\n        /* \"contracts/flitcoin.sol\":2608:2652  equity_flitcoins[investor] -= flitcoins_sold */\n      dup3\n      dup3\n      sload\n      tag_40\n      swap2\n      swap1\n      tag_41\n      jump\t// in\n    tag_40:\n      swap3\n      pop\n      pop\n      dup2\n      swap1\n      sstore\n      pop\n        /* \"contracts/flitcoin.sol\":2763:2767  1000 */\n      0x03e8\n        /* \"contracts/flitcoin.sol\":2734:2750  equity_flitcoins */\n      0x03\n        /* \"contracts/flitcoin.sol\":2734:2760  equity_flitcoins[investor] */\n      0x00\n        /* \"contracts/flitcoin.sol\":2751:2759  investor */\n      dup5\n        /* \"contracts/flitcoin.sol\":2734:2760  equity_flitcoins[investor] */\n      0xffffffffffffffffffffffffffffffffffffffff\n      and\n      0xffffffffffffffffffffffffffffffffffffffff\n      and\n      dup2\n      mstore\n      0x20\n      add\n      swap1\n      dup2\n      mstore\n      0x20\n      add\n      0x00\n      keccak256\n      sload\n        /* \"contracts/flitcoin.sol\":2734:2767  equity_flitcoins[investor] / 1000 */\n      tag_42\n      swap2\n      swap1\n      tag_43\n      jump\t// in\n    tag_42:\n        /* \"contracts/flitcoin.sol\":2711:2721  equity_usd */\n      0x04\n        /* \"contracts/flitcoin.sol\":2711:2731  equity_usd[investor] */\n      0x00\n        /* \"contracts/flitcoin.sol\":2722:2730  investor */\n      dup5\n        /* \"contracts/flitcoin.sol\":2711:2731  equity_usd[investor] */\n      0xffffffffffffffffffffffffffffffffffffffff\n      and\n      0xffffffffffffffffffffffffffffffffffffffff\n      and\n      dup2\n      mstore\n      0x20\n      add\n      swap1\n      dup2\n      mstore\n      0x20\n      add\n      0x00\n      keccak256\n        /* \"contracts/flitcoin.sol\":2711:2767  equity_usd[investor] = equity_flitcoins[investor] / 1000 */\n      dup2\n      swap1\n      sstore\n      pop\n        /* \"contracts/flitcoin.sol\":2935:2949  flitcoins_sold */\n      dup1\n        /* \"contracts/flitcoin.sol\":2909:2931  total_flitcoins_bought */\n      0x02\n      0x00\n        /* \"contracts/flitcoin.sol\":2909:2949  total_flitcoins_bought -= flitcoins_sold */\n      dup3\n      dup3\n      sload\n      tag_44\n      swap2\n      swap1\n      tag_41\n      jump\t// in\n    tag_44:\n      swap3\n      pop\n      pop\n      dup2\n      swap1\n      sstore\n      pop\n        /* \"contracts/flitcoin.sol\":2445:2956  function sell_flitcoins(address investor, uint flitcoins_sold) external {... */\n      pop\n      pop\n      jump\t// out\n        /* \"contracts/flitcoin.sol\":166:201  uint public max_flitcoins = 1000000 */\n    tag_32:\n      sload(0x00)\n      dup2\n      jump\t// out\n        /* \"contracts/flitcoin.sol\":1571:2416  function buy_flitcoins(address investor, uint usd_invested) external can_buy_flitcoins(usd_invested) { //antes de entrar a la función usamos el modificador para verificar si el accionista puede comprar flitcoins tomando como parámetro el usd_invested... */\n    tag_36:\n        /* \"contracts/flitcoin.sol\":1658:1670  usd_invested */\n      dup1\n        /* \"contracts/flitcoin.sol\":943:956  max_flitcoins */\n      sload(0x00)\n        /* \"contracts/flitcoin.sol\":917:939  total_flitcoins_bought */\n      sload(0x02)\n        /* \"contracts/flitcoin.sol\":898:914  usd_to_flitcoins */\n      sload(0x01)\n        /* \"contracts/flitcoin.sol\":883:895  usd_invested */\n      dup4\n        /* \"contracts/flitcoin.sol\":883:914  usd_invested * usd_to_flitcoins */\n      tag_46\n      swap2\n      swap1\n      tag_47\n      jump\t// in\n    tag_46:\n        /* \"contracts/flitcoin.sol\":883:939  usd_invested * usd_to_flitcoins + total_flitcoins_bought */\n      tag_48\n      swap2\n      swap1\n      tag_49\n      jump\t// in\n    tag_48:\n        /* \"contracts/flitcoin.sol\":883:956  usd_invested * usd_to_flitcoins + total_flitcoins_bought <= max_flitcoins */\n      gt\n      iszero\n        /* \"contracts/flitcoin.sol\":875:957  require(usd_invested * usd_to_flitcoins + total_flitcoins_bought <= max_flitcoins) */\n      tag_50\n      jumpi\n      0x00\n      dup1\n      revert\n    tag_50:\n        /* \"contracts/flitcoin.sol\":1898:1919  uint flitcoins_bought */\n      0x00\n        /* \"contracts/flitcoin.sol\":1937:1953  usd_to_flitcoins */\n      sload(0x01)\n        /* \"contracts/flitcoin.sol\":1922:1934  usd_invested */\n      dup4\n        /* \"contracts/flitcoin.sol\":1922:1953  usd_invested * usd_to_flitcoins */\n      tag_52\n      swap2\n      swap1\n      tag_47\n      jump\t// in\n    tag_52:\n        /* \"contracts/flitcoin.sol\":1898:1953  uint flitcoins_bought = usd_invested * usd_to_flitcoins */\n      swap1\n      pop\n        /* \"contracts/flitcoin.sol\":2093:2109  flitcoins_bought */\n      dup1\n        /* \"contracts/flitcoin.sol\":2063:2079  equity_flitcoins */\n      0x03\n        /* \"contracts/flitcoin.sol\":2063:2089  equity_flitcoins[investor] */\n      0x00\n        /* \"contracts/flitcoin.sol\":2080:2088  investor */\n      dup7\n        /* \"contracts/flitcoin.sol\":2063:2089  equity_flitcoins[investor] */\n      0xffffffffffffffffffffffffffffffffffffffff\n      and\n      0xffffffffffffffffffffffffffffffffffffffff\n      and\n      dup2\n      mstore\n      0x20\n      add\n      swap1\n      dup2\n      mstore\n      0x20\n      add\n      0x00\n      keccak256\n      0x00\n        /* \"contracts/flitcoin.sol\":2063:2109  equity_flitcoins[investor] += flitcoins_bought */\n      dup3\n      dup3\n      sload\n      tag_53\n      swap2\n      swap1\n      tag_49\n      jump\t// in\n    tag_53:\n      swap3\n      pop\n      pop\n      dup2\n      swap1\n      sstore\n      pop\n        /* \"contracts/flitcoin.sol\":2220:2224  1000 */\n      0x03e8\n        /* \"contracts/flitcoin.sol\":2191:2207  equity_flitcoins */\n      0x03\n        /* \"contracts/flitcoin.sol\":2191:2217  equity_flitcoins[investor] */\n      0x00\n        /* \"contracts/flitcoin.sol\":2208:2216  investor */\n      dup7\n        /* \"contracts/flitcoin.sol\":2191:2217  equity_flitcoins[investor] */\n      0xffffffffffffffffffffffffffffffffffffffff\n      and\n      0xffffffffffffffffffffffffffffffffffffffff\n      and\n      dup2\n      mstore\n      0x20\n      add\n      swap1\n      dup2\n      mstore\n      0x20\n      add\n      0x00\n      keccak256\n      sload\n        /* \"contracts/flitcoin.sol\":2191:2224  equity_flitcoins[investor] / 1000 */\n      tag_54\n      swap2\n      swap1\n      tag_43\n      jump\t// in\n    tag_54:\n        /* \"contracts/flitcoin.sol\":2168:2178  equity_usd */\n      0x04\n        /* \"contracts/flitcoin.sol\":2168:2188  equity_usd[investor] */\n      0x00\n        /* \"contracts/flitcoin.sol\":2179:2187  investor */\n      dup7\n        /* \"contracts/flitcoin.sol\":2168:2188  equity_usd[investor] */\n      0xffffffffffffffffffffffffffffffffffffffff\n      and\n      0xffffffffffffffffffffffffffffffffffffffff\n      and\n      dup2\n      mstore\n      0x20\n      add\n      swap1\n      dup2\n      mstore\n      0x20\n      add\n      0x00\n      keccak256\n        /* \"contracts/flitcoin.sol\":2168:2224  equity_usd[investor] = equity_flitcoins[investor] / 1000 */\n      dup2\n      swap1\n      sstore\n      pop\n        /* \"contracts/flitcoin.sol\":2393:2409  flitcoins_bought */\n      dup1\n        /* \"contracts/flitcoin.sol\":2367:2389  total_flitcoins_bought */\n      0x02\n      0x00\n        /* \"contracts/flitcoin.sol\":2367:2409  total_flitcoins_bought += flitcoins_bought */\n      dup3\n      dup3\n      sload\n      tag_55\n      swap2\n      swap1\n      tag_49\n      jump\t// in\n    tag_55:\n      swap3\n      pop\n      pop\n      dup2\n      swap1\n      sstore\n      pop\n        /* \"contracts/flitcoin.sol\":1672:2416  { //antes de entrar a la función usamos el modificador para verificar si el accionista puede comprar flitcoins tomando como parámetro el usd_invested... */\n      pop\n        /* \"contracts/flitcoin.sol\":1571:2416  function buy_flitcoins(address investor, uint usd_invested) external can_buy_flitcoins(usd_invested) { //antes de entrar a la función usamos el modificador para verificar si el accionista puede comprar flitcoins tomando como parámetro el usd_invested... */\n      pop\n      pop\n      pop\n      jump\t// out\n        /* \"#utility.yul\":88:205   */\n    tag_57:\n        /* \"#utility.yul\":197:198   */\n      0x00\n        /* \"#utility.yul\":194:195   */\n      dup1\n        /* \"#utility.yul\":187:199   */\n      revert\n        /* \"#utility.yul\":334:460   */\n    tag_59:\n        /* \"#utility.yul\":371:378   */\n      0x00\n        /* \"#utility.yul\":411:453   */\n      0xffffffffffffffffffffffffffffffffffffffff\n        /* \"#utility.yul\":404:409   */\n      dup3\n        /* \"#utility.yul\":400:454   */\n      and\n        /* \"#utility.yul\":389:454   */\n      swap1\n      pop\n        /* \"#utility.yul\":334:460   */\n      swap2\n      swap1\n      pop\n      jump\t// out\n        /* \"#utility.yul\":466:562   */\n    tag_60:\n        /* \"#utility.yul\":503:510   */\n      0x00\n        /* \"#utility.yul\":532:556   */\n      tag_75\n        /* \"#utility.yul\":550:555   */\n      dup3\n        /* \"#utility.yul\":532:556   */\n      tag_59\n      jump\t// in\n    tag_75:\n        /* \"#utility.yul\":521:556   */\n      swap1\n      pop\n        /* \"#utility.yul\":466:562   */\n      swap2\n      swap1\n      pop\n      jump\t// out\n        /* \"#utility.yul\":568:690   */\n    tag_61:\n        /* \"#utility.yul\":641:665   */\n      tag_77\n        /* \"#utility.yul\":659:664   */\n      dup2\n        /* \"#utility.yul\":641:665   */\n      tag_60\n      jump\t// in\n    tag_77:\n        /* \"#utility.yul\":634:639   */\n      dup2\n        /* \"#utility.yul\":631:666   */\n      eq\n        /* \"#utility.yul\":621:684   */\n      tag_78\n      jumpi\n        /* \"#utility.yul\":680:681   */\n      0x00\n        /* \"#utility.yul\":677:678   */\n      dup1\n        /* \"#utility.yul\":670:682   */\n      revert\n        /* \"#utility.yul\":621:684   */\n    tag_78:\n        /* \"#utility.yul\":568:690   */\n      pop\n      jump\t// out\n        /* \"#utility.yul\":696:835   */\n    tag_62:\n        /* \"#utility.yul\":742:747   */\n      0x00\n        /* \"#utility.yul\":780:786   */\n      dup2\n        /* \"#utility.yul\":767:787   */\n      calldataload\n        /* \"#utility.yul\":758:787   */\n      swap1\n      pop\n        /* \"#utility.yul\":796:829   */\n      tag_80\n        /* \"#utility.yul\":823:828   */\n      dup2\n        /* \"#utility.yul\":796:829   */\n      tag_61\n      jump\t// in\n    tag_80:\n        /* \"#utility.yul\":696:835   */\n      swap3\n      swap2\n      pop\n      pop\n      jump\t// out\n        /* \"#utility.yul\":841:1170   */\n    tag_13:\n        /* \"#utility.yul\":900:906   */\n      0x00\n        /* \"#utility.yul\":949:951   */\n      0x20\n        /* \"#utility.yul\":937:946   */\n      dup3\n        /* \"#utility.yul\":928:935   */\n      dup5\n        /* \"#utility.yul\":924:947   */\n      sub\n        /* \"#utility.yul\":920:952   */\n      slt\n        /* \"#utility.yul\":917:1036   */\n      iszero\n      tag_82\n      jumpi\n        /* \"#utility.yul\":955:1034   */\n      tag_83\n      tag_57\n      jump\t// in\n    tag_83:\n        /* \"#utility.yul\":917:1036   */\n    tag_82:\n        /* \"#utility.yul\":1075:1076   */\n      0x00\n        /* \"#utility.yul\":1100:1153   */\n      tag_84\n        /* \"#utility.yul\":1145:1152   */\n      dup5\n        /* \"#utility.yul\":1136:1142   */\n      dup3\n        /* \"#utility.yul\":1125:1134   */\n      dup6\n        /* \"#utility.yul\":1121:1143   */\n      add\n        /* \"#utility.yul\":1100:1153   */\n      tag_62\n      jump\t// in\n    tag_84:\n        /* \"#utility.yul\":1090:1153   */\n      swap2\n      pop\n        /* \"#utility.yul\":1046:1163   */\n      pop\n        /* \"#utility.yul\":841:1170   */\n      swap3\n      swap2\n      pop\n      pop\n      jump\t// out\n        /* \"#utility.yul\":1176:1253   */\n    tag_63:\n        /* \"#utility.yul\":1213:1220   */\n      0x00\n        /* \"#utility.yul\":1242:1247   */\n      dup2\n        /* \"#utility.yul\":1231:1247   */\n      swap1\n      pop\n        /* \"#utility.yul\":1176:1253   */\n      swap2\n      swap1\n      pop\n      jump\t// out\n        /* \"#utility.yul\":1259:1377   */\n    tag_64:\n        /* \"#utility.yul\":1346:1370   */\n      tag_87\n        /* \"#utility.yul\":1364:1369   */\n      dup2\n        /* \"#utility.yul\":1346:1370   */\n      tag_63\n      jump\t// in\n    tag_87:\n        /* \"#utility.yul\":1341:1344   */\n      dup3\n        /* \"#utility.yul\":1334:1371   */\n      mstore\n        /* \"#utility.yul\":1259:1377   */\n      pop\n      pop\n      jump\t// out\n        /* \"#utility.yul\":1383:1605   */\n    tag_16:\n        /* \"#utility.yul\":1476:1480   */\n      0x00\n        /* \"#utility.yul\":1514:1516   */\n      0x20\n        /* \"#utility.yul\":1503:1512   */\n      dup3\n        /* \"#utility.yul\":1499:1517   */\n      add\n        /* \"#utility.yul\":1491:1517   */\n      swap1\n      pop\n        /* \"#utility.yul\":1527:1598   */\n      tag_89\n        /* \"#utility.yul\":1595:1596   */\n      0x00\n        /* \"#utility.yul\":1584:1593   */\n      dup4\n        /* \"#utility.yul\":1580:1597   */\n      add\n        /* \"#utility.yul\":1571:1577   */\n      dup5\n        /* \"#utility.yul\":1527:1598   */\n      tag_64\n      jump\t// in\n    tag_89:\n        /* \"#utility.yul\":1383:1605   */\n      swap3\n      swap2\n      pop\n      pop\n      jump\t// out\n        /* \"#utility.yul\":1611:1733   */\n    tag_65:\n        /* \"#utility.yul\":1684:1708   */\n      tag_91\n        /* \"#utility.yul\":1702:1707   */\n      dup2\n        /* \"#utility.yul\":1684:1708   */\n      tag_63\n      jump\t// in\n    tag_91:\n        /* \"#utility.yul\":1677:1682   */\n      dup2\n        /* \"#utility.yul\":1674:1709   */\n      eq\n        /* \"#utility.yul\":1664:1727   */\n      tag_92\n      jumpi\n        /* \"#utility.yul\":1723:1724   */\n      0x00\n        /* \"#utility.yul\":1720:1721   */\n      dup1\n        /* \"#utility.yul\":1713:1725   */\n      revert\n        /* \"#utility.yul\":1664:1727   */\n    tag_92:\n        /* \"#utility.yul\":1611:1733   */\n      pop\n      jump\t// out\n        /* \"#utility.yul\":1739:1878   */\n    tag_66:\n        /* \"#utility.yul\":1785:1790   */\n      0x00\n        /* \"#utility.yul\":1823:1829   */\n      dup2\n        /* \"#utility.yul\":1810:1830   */\n      calldataload\n        /* \"#utility.yul\":1801:1830   */\n      swap1\n      pop\n        /* \"#utility.yul\":1839:1872   */\n      tag_94\n        /* \"#utility.yul\":1866:1871   */\n      dup2\n        /* \"#utility.yul\":1839:1872   */\n      tag_65\n      jump\t// in\n    tag_94:\n        /* \"#utility.yul\":1739:1878   */\n      swap3\n      swap2\n      pop\n      pop\n      jump\t// out\n        /* \"#utility.yul\":1884:2358   */\n    tag_29:\n        /* \"#utility.yul\":1952:1958   */\n      0x00\n        /* \"#utility.yul\":1960:1966   */\n      dup1\n        /* \"#utility.yul\":2009:2011   */\n      0x40\n        /* \"#utility.yul\":1997:2006   */\n      dup4\n        /* \"#utility.yul\":1988:1995   */\n      dup6\n        /* \"#utility.yul\":1984:2007   */\n      sub\n        /* \"#utility.yul\":1980:2012   */\n      slt\n        /* \"#utility.yul\":1977:2096   */\n      iszero\n      tag_96\n      jumpi\n        /* \"#utility.yul\":2015:2094   */\n      tag_97\n      tag_57\n      jump\t// in\n    tag_97:\n        /* \"#utility.yul\":1977:2096   */\n    tag_96:\n        /* \"#utility.yul\":2135:2136   */\n      0x00\n        /* \"#utility.yul\":2160:2213   */\n      tag_98\n        /* \"#utility.yul\":2205:2212   */\n      dup6\n        /* \"#utility.yul\":2196:2202   */\n      dup3\n        /* \"#utility.yul\":2185:2194   */\n      dup7\n        /* \"#utility.yul\":2181:2203   */\n      add\n        /* \"#utility.yul\":2160:2213   */\n      tag_62\n      jump\t// in\n    tag_98:\n        /* \"#utility.yul\":2150:2213   */\n      swap3\n      pop\n        /* \"#utility.yul\":2106:2223   */\n      pop\n        /* \"#utility.yul\":2262:2264   */\n      0x20\n        /* \"#utility.yul\":2288:2341   */\n      tag_99\n        /* \"#utility.yul\":2333:2340   */\n      dup6\n        /* \"#utility.yul\":2324:2330   */\n      dup3\n        /* \"#utility.yul\":2313:2322   */\n      dup7\n        /* \"#utility.yul\":2309:2331   */\n      add\n        /* \"#utility.yul\":2288:2341   */\n      tag_66\n      jump\t// in\n    tag_99:\n        /* \"#utility.yul\":2278:2341   */\n      swap2\n      pop\n        /* \"#utility.yul\":2233:2351   */\n      pop\n        /* \"#utility.yul\":1884:2358   */\n      swap3\n      pop\n      swap3\n      swap1\n      pop\n      jump\t// out\n        /* \"#utility.yul\":2364:2544   */\n    tag_67:\n        /* \"#utility.yul\":2412:2489   */\n      0x4e487b7100000000000000000000000000000000000000000000000000000000\n        /* \"#utility.yul\":2409:2410   */\n      0x00\n        /* \"#utility.yul\":2402:2490   */\n      mstore\n        /* \"#utility.yul\":2509:2513   */\n      0x11\n        /* \"#utility.yul\":2506:2507   */\n      0x04\n        /* \"#utility.yul\":2499:2514   */\n      mstore\n        /* \"#utility.yul\":2533:2537   */\n      0x24\n        /* \"#utility.yul\":2530:2531   */\n      0x00\n        /* \"#utility.yul\":2523:2538   */\n      revert\n        /* \"#utility.yul\":2550:2744   */\n    tag_41:\n        /* \"#utility.yul\":2590:2594   */\n      0x00\n        /* \"#utility.yul\":2610:2630   */\n      tag_102\n        /* \"#utility.yul\":2628:2629   */\n      dup3\n        /* \"#utility.yul\":2610:2630   */\n      tag_63\n      jump\t// in\n    tag_102:\n        /* \"#utility.yul\":2605:2630   */\n      swap2\n      pop\n        /* \"#utility.yul\":2644:2664   */\n      tag_103\n        /* \"#utility.yul\":2662:2663   */\n      dup4\n        /* \"#utility.yul\":2644:2664   */\n      tag_63\n      jump\t// in\n    tag_103:\n        /* \"#utility.yul\":2639:2664   */\n      swap3\n      pop\n        /* \"#utility.yul\":2688:2689   */\n      dup3\n        /* \"#utility.yul\":2685:2686   */\n      dup3\n        /* \"#utility.yul\":2681:2690   */\n      sub\n        /* \"#utility.yul\":2673:2690   */\n      swap1\n      pop\n        /* \"#utility.yul\":2712:2713   */\n      dup2\n        /* \"#utility.yul\":2706:2710   */\n      dup2\n        /* \"#utility.yul\":2703:2714   */\n      gt\n        /* \"#utility.yul\":2700:2737   */\n      iszero\n      tag_104\n      jumpi\n        /* \"#utility.yul\":2717:2735   */\n      tag_105\n      tag_67\n      jump\t// in\n    tag_105:\n        /* \"#utility.yul\":2700:2737   */\n    tag_104:\n        /* \"#utility.yul\":2550:2744   */\n      swap3\n      swap2\n      pop\n      pop\n      jump\t// out\n        /* \"#utility.yul\":2750:2930   */\n    tag_68:\n        /* \"#utility.yul\":2798:2875   */\n      0x4e487b7100000000000000000000000000000000000000000000000000000000\n        /* \"#utility.yul\":2795:2796   */\n      0x00\n        /* \"#utility.yul\":2788:2876   */\n      mstore\n        /* \"#utility.yul\":2895:2899   */\n      0x12\n        /* \"#utility.yul\":2892:2893   */\n      0x04\n        /* \"#utility.yul\":2885:2900   */\n      mstore\n        /* \"#utility.yul\":2919:2923   */\n      0x24\n        /* \"#utility.yul\":2916:2917   */\n      0x00\n        /* \"#utility.yul\":2909:2924   */\n      revert\n        /* \"#utility.yul\":2936:3121   */\n    tag_43:\n        /* \"#utility.yul\":2976:2977   */\n      0x00\n        /* \"#utility.yul\":2993:3013   */\n      tag_108\n        /* \"#utility.yul\":3011:3012   */\n      dup3\n        /* \"#utility.yul\":2993:3013   */\n      tag_63\n      jump\t// in\n    tag_108:\n        /* \"#utility.yul\":2988:3013   */\n      swap2\n      pop\n        /* \"#utility.yul\":3027:3047   */\n      tag_109\n        /* \"#utility.yul\":3045:3046   */\n      dup4\n        /* \"#utility.yul\":3027:3047   */\n      tag_63\n      jump\t// in\n    tag_109:\n        /* \"#utility.yul\":3022:3047   */\n      swap3\n      pop\n        /* \"#utility.yul\":3066:3067   */\n      dup3\n        /* \"#utility.yul\":3056:3091   */\n      tag_110\n      jumpi\n        /* \"#utility.yul\":3071:3089   */\n      tag_111\n      tag_68\n      jump\t// in\n    tag_111:\n        /* \"#utility.yul\":3056:3091   */\n    tag_110:\n        /* \"#utility.yul\":3113:3114   */\n      dup3\n        /* \"#utility.yul\":3110:3111   */\n      dup3\n        /* \"#utility.yul\":3106:3115   */\n      div\n        /* \"#utility.yul\":3101:3115   */\n      swap1\n      pop\n        /* \"#utility.yul\":2936:3121   */\n      swap3\n      swap2\n      pop\n      pop\n      jump\t// out\n        /* \"#utility.yul\":3127:3537   */\n    tag_47:\n        /* \"#utility.yul\":3167:3174   */\n      0x00\n        /* \"#utility.yul\":3190:3210   */\n      tag_113\n        /* \"#utility.yul\":3208:3209   */\n      dup3\n        /* \"#utility.yul\":3190:3210   */\n      tag_63\n      jump\t// in\n    tag_113:\n        /* \"#utility.yul\":3185:3210   */\n      swap2\n      pop\n        /* \"#utility.yul\":3224:3244   */\n      tag_114\n        /* \"#utility.yul\":3242:3243   */\n      dup4\n        /* \"#utility.yul\":3224:3244   */\n      tag_63\n      jump\t// in\n    tag_114:\n        /* \"#utility.yul\":3219:3244   */\n      swap3\n      pop\n        /* \"#utility.yul\":3279:3280   */\n      dup3\n        /* \"#utility.yul\":3276:3277   */\n      dup3\n        /* \"#utility.yul\":3272:3281   */\n      mul\n        /* \"#utility.yul\":3301:3331   */\n      tag_115\n        /* \"#utility.yul\":3319:3330   */\n      dup2\n        /* \"#utility.yul\":3301:3331   */\n      tag_63\n      jump\t// in\n    tag_115:\n        /* \"#utility.yul\":3290:3331   */\n      swap2\n      pop\n        /* \"#utility.yul\":3480:3481   */\n      dup3\n        /* \"#utility.yul\":3471:3478   */\n      dup3\n        /* \"#utility.yul\":3467:3482   */\n      div\n        /* \"#utility.yul\":3464:3465   */\n      dup5\n        /* \"#utility.yul\":3461:3483   */\n      eq\n        /* \"#utility.yul\":3441:3442   */\n      dup4\n        /* \"#utility.yul\":3434:3443   */\n      iszero\n        /* \"#utility.yul\":3414:3497   */\n      or\n        /* \"#utility.yul\":3391:3530   */\n      tag_116\n      jumpi\n        /* \"#utility.yul\":3510:3528   */\n      tag_117\n      tag_67\n      jump\t// in\n    tag_117:\n        /* \"#utility.yul\":3391:3530   */\n    tag_116:\n        /* \"#utility.yul\":3175:3537   */\n      pop\n        /* \"#utility.yul\":3127:3537   */\n      swap3\n      swap2\n      pop\n      pop\n      jump\t// out\n        /* \"#utility.yul\":3543:3734   */\n    tag_49:\n        /* \"#utility.yul\":3583:3586   */\n      0x00\n        /* \"#utility.yul\":3602:3622   */\n      tag_119\n        /* \"#utility.yul\":3620:3621   */\n      dup3\n        /* \"#utility.yul\":3602:3622   */\n      tag_63\n      jump\t// in\n    tag_119:\n        /* \"#utility.yul\":3597:3622   */\n      swap2\n      pop\n        /* \"#utility.yul\":3636:3656   */\n      tag_120\n        /* \"#utility.yul\":3654:3655   */\n      dup4\n        /* \"#utility.yul\":3636:3656   */\n      tag_63\n      jump\t// in\n    tag_120:\n        /* \"#utility.yul\":3631:3656   */\n      swap3\n      pop\n        /* \"#utility.yul\":3679:3680   */\n      dup3\n        /* \"#utility.yul\":3676:3677   */\n      dup3\n        /* \"#utility.yul\":3672:3681   */\n      add\n        /* \"#utility.yul\":3665:3681   */\n      swap1\n      pop\n        /* \"#utility.yul\":3700:3703   */\n      dup1\n        /* \"#utility.yul\":3697:3698   */\n      dup3\n        /* \"#utility.yul\":3694:3704   */\n      gt\n        /* \"#utility.yul\":3691:3727   */\n      iszero\n      tag_121\n      jumpi\n        /* \"#utility.yul\":3707:3725   */\n      tag_122\n      tag_67\n      jump\t// in\n    tag_122:\n        /* \"#utility.yul\":3691:3727   */\n    tag_121:\n        /* \"#utility.yul\":3543:3734   */\n      swap3\n      swap2\n      pop\n      pop\n      jump\t// out\n\n    auxdata: 0xa26469706673582212207e68a190ac5a4fa174ae398c097ab44591fe229e70b9b01d9197ec371395b60464736f6c63430008190033\n}\n",
				"bytecode": {
					"linkReferences": {},
					"object": "6080604052620f42405f556103e86001555f600255348015601e575f80fd5b506106c88061002c5f395ff3fe608060405234801561000f575f80fd5b506004361061007b575f3560e01c80634f99b9b0116100595780634f99b9b0146100fd57806385a60ba31461011b578063cb739c3b14610137578063e5a408fd146101555761007b565b806310c51c1b1461007f578063126cc9e2146100af57806326e880d4146100cd575b5f80fd5b6100996004803603810190610094919061049d565b610171565b6040516100a691906104e0565b60405180910390f35b6100b76101b7565b6040516100c491906104e0565b60405180910390f35b6100e760048036038101906100e2919061049d565b6101bd565b6040516100f491906104e0565b60405180910390f35b610105610203565b60405161011291906104e0565b60405180910390f35b61013560048036038101906101309190610523565b610209565b005b61013f610304565b60405161014c91906104e0565b60405180910390f35b61016f600480360381019061016a9190610523565b610309565b005b5f60045f8373ffffffffffffffffffffffffffffffffffffffff1673ffffffffffffffffffffffffffffffffffffffff1681526020019081526020015f20549050919050565b60015481565b5f60035f8373ffffffffffffffffffffffffffffffffffffffff1673ffffffffffffffffffffffffffffffffffffffff1681526020019081526020015f20549050919050565b60025481565b8060035f8473ffffffffffffffffffffffffffffffffffffffff1673ffffffffffffffffffffffffffffffffffffffff1681526020019081526020015f205f828254610255919061058e565b925050819055506103e860035f8473ffffffffffffffffffffffffffffffffffffffff1673ffffffffffffffffffffffffffffffffffffffff1681526020019081526020015f20546102a791906105ee565b60045f8473ffffffffffffffffffffffffffffffffffffffff1673ffffffffffffffffffffffffffffffffffffffff1681526020019081526020015f20819055508060025f8282546102f9919061058e565b925050819055505050565b5f5481565b805f546002546001548361031d919061061e565b610327919061065f565b1115610331575f80fd5b5f60015483610340919061061e565b90508060035f8673ffffffffffffffffffffffffffffffffffffffff1673ffffffffffffffffffffffffffffffffffffffff1681526020019081526020015f205f82825461038e919061065f565b925050819055506103e860035f8673ffffffffffffffffffffffffffffffffffffffff1673ffffffffffffffffffffffffffffffffffffffff1681526020019081526020015f20546103e091906105ee565b60045f8673ffffffffffffffffffffffffffffffffffffffff1673ffffffffffffffffffffffffffffffffffffffff1681526020019081526020015f20819055508060025f828254610432919061065f565b9250508190555050505050565b5f80fd5b5f73ffffffffffffffffffffffffffffffffffffffff82169050919050565b5f61046c82610443565b9050919050565b61047c81610462565b8114610486575f80fd5b50565b5f8135905061049781610473565b92915050565b5f602082840312156104b2576104b161043f565b5b5f6104bf84828501610489565b91505092915050565b5f819050919050565b6104da816104c8565b82525050565b5f6020820190506104f35f8301846104d1565b92915050565b610502816104c8565b811461050c575f80fd5b50565b5f8135905061051d816104f9565b92915050565b5f80604083850312156105395761053861043f565b5b5f61054685828601610489565b92505060206105578582860161050f565b9150509250929050565b7f4e487b71000000000000000000000000000000000000000000000000000000005f52601160045260245ffd5b5f610598826104c8565b91506105a3836104c8565b92508282039050818111156105bb576105ba610561565b5b92915050565b7f4e487b71000000000000000000000000000000000000000000000000000000005f52601260045260245ffd5b5f6105f8826104c8565b9150610603836104c8565b925082610613576106126105c1565b5b828204905092915050565b5f610628826104c8565b9150610633836104c8565b9250828202610641816104c8565b9150828204841483151761065857610657610561565b5b5092915050565b5f610669826104c8565b9150610674836104c8565b925082820190508082111561068c5761068b610561565b5b9291505056fea26469706673582212207e68a190ac5a4fa174ae398c097ab44591fe229e70b9b01d9197ec371395b60464736f6c63430008190033",
					"opcodes": "PUSH1 0x80 PUSH1 0x40 MSTORE PUSH3 0xF4240 PUSH0 SSTORE PUSH2 0x3E8 PUSH1 0x1 SSTORE PUSH0 PUSH1 0x2 SSTORE CALLVALUE DUP1 ISZERO PUSH1 0x1E JUMPI PUSH0 DUP1 REVERT JUMPDEST POP PUSH2 0x6C8 DUP1 PUSH2 0x2C PUSH0 CODECOPY PUSH0 RETURN INVALID PUSH1 0x80 PUSH1 0x40 MSTORE CALLVALUE DUP1 ISZERO PUSH2 0xF JUMPI PUSH0 DUP1 REVERT JUMPDEST POP PUSH1 0x4 CALLDATASIZE LT PUSH2 0x7B JUMPI PUSH0 CALLDATALOAD PUSH1 0xE0 SHR DUP1 PUSH4 0x4F99B9B0 GT PUSH2 0x59 JUMPI DUP1 PUSH4 0x4F99B9B0 EQ PUSH2 0xFD JUMPI DUP1 PUSH4 0x85A60BA3 EQ PUSH2 0x11B JUMPI DUP1 PUSH4 0xCB739C3B EQ PUSH2 0x137 JUMPI DUP1 PUSH4 0xE5A408FD EQ PUSH2 0x155 JUMPI PUSH2 0x7B JUMP JUMPDEST DUP1 PUSH4 0x10C51C1B EQ PUSH2 0x7F JUMPI DUP1 PUSH4 0x126CC9E2 EQ PUSH2 0xAF JUMPI DUP1 PUSH4 0x26E880D4 EQ PUSH2 0xCD JUMPI JUMPDEST PUSH0 DUP1 REVERT JUMPDEST PUSH2 0x99 PUSH1 0x4 DUP1 CALLDATASIZE SUB DUP2 ADD SWAP1 PUSH2 0x94 SWAP2 SWAP1 PUSH2 0x49D JUMP JUMPDEST PUSH2 0x171 JUMP JUMPDEST PUSH1 0x40 MLOAD PUSH2 0xA6 SWAP2 SWAP1 PUSH2 0x4E0 JUMP JUMPDEST PUSH1 0x40 MLOAD DUP1 SWAP2 SUB SWAP1 RETURN JUMPDEST PUSH2 0xB7 PUSH2 0x1B7 JUMP JUMPDEST PUSH1 0x40 MLOAD PUSH2 0xC4 SWAP2 SWAP1 PUSH2 0x4E0 JUMP JUMPDEST PUSH1 0x40 MLOAD DUP1 SWAP2 SUB SWAP1 RETURN JUMPDEST PUSH2 0xE7 PUSH1 0x4 DUP1 CALLDATASIZE SUB DUP2 ADD SWAP1 PUSH2 0xE2 SWAP2 SWAP1 PUSH2 0x49D JUMP JUMPDEST PUSH2 0x1BD JUMP JUMPDEST PUSH1 0x40 MLOAD PUSH2 0xF4 SWAP2 SWAP1 PUSH2 0x4E0 JUMP JUMPDEST PUSH1 0x40 MLOAD DUP1 SWAP2 SUB SWAP1 RETURN JUMPDEST PUSH2 0x105 PUSH2 0x203 JUMP JUMPDEST PUSH1 0x40 MLOAD PUSH2 0x112 SWAP2 SWAP1 PUSH2 0x4E0 JUMP JUMPDEST PUSH1 0x40 MLOAD DUP1 SWAP2 SUB SWAP1 RETURN JUMPDEST PUSH2 0x135 PUSH1 0x4 DUP1 CALLDATASIZE SUB DUP2 ADD SWAP1 PUSH2 0x130 SWAP2 SWAP1 PUSH2 0x523 JUMP JUMPDEST PUSH2 0x209 JUMP JUMPDEST STOP JUMPDEST PUSH2 0x13F PUSH2 0x304 JUMP JUMPDEST PUSH1 0x40 MLOAD PUSH2 0x14C SWAP2 SWAP1 PUSH2 0x4E0 JUMP JUMPDEST PUSH1 0x40 MLOAD DUP1 SWAP2 SUB SWAP1 RETURN JUMPDEST PUSH2 0x16F PUSH1 0x4 DUP1 CALLDATASIZE SUB DUP2 ADD SWAP1 PUSH2 0x16A SWAP2 SWAP1 PUSH2 0x523 JUMP JUMPDEST PUSH2 0x309 JUMP JUMPDEST STOP JUMPDEST PUSH0 PUSH1 0x4 PUSH0 DUP4 PUSH20 0xFFFFFFFFFFFFFFFFFFFFFFFFFFFFFFFFFFFFFFFF AND PUSH20 0xFFFFFFFFFFFFFFFFFFFFFFFFFFFFFFFFFFFFFFFF AND DUP2 MSTORE PUSH1 0x20 ADD SWAP1 DUP2 MSTORE PUSH1 0x20 ADD PUSH0 KECCAK256 SLOAD SWAP1 POP SWAP2 SWAP1 POP JUMP JUMPDEST PUSH1 0x1 SLOAD DUP2 JUMP JUMPDEST PUSH0 PUSH1 0x3 PUSH0 DUP4 PUSH20 0xFFFFFFFFFFFFFFFFFFFFFFFFFFFFFFFFFFFFFFFF AND PUSH20 0xFFFFFFFFFFFFFFFFFFFFFFFFFFFFFFFFFFFFFFFF AND DUP2 MSTORE PUSH1 0x20 ADD SWAP1 DUP2 MSTORE PUSH1 0x20 ADD PUSH0 KECCAK256 SLOAD SWAP1 POP SWAP2 SWAP1 POP JUMP JUMPDEST PUSH1 0x2 SLOAD DUP2 JUMP JUMPDEST DUP1 PUSH1 0x3 PUSH0 DUP5 PUSH20 0xFFFFFFFFFFFFFFFFFFFFFFFFFFFFFFFFFFFFFFFF AND PUSH20 0xFFFFFFFFFFFFFFFFFFFFFFFFFFFFFFFFFFFFFFFF AND DUP2 MSTORE PUSH1 0x20 ADD SWAP1 DUP2 MSTORE PUSH1 0x20 ADD PUSH0 KECCAK256 PUSH0 DUP3 DUP3 SLOAD PUSH2 0x255 SWAP2 SWAP1 PUSH2 0x58E JUMP JUMPDEST SWAP3 POP POP DUP2 SWAP1 SSTORE POP PUSH2 0x3E8 PUSH1 0x3 PUSH0 DUP5 PUSH20 0xFFFFFFFFFFFFFFFFFFFFFFFFFFFFFFFFFFFFFFFF AND PUSH20 0xFFFFFFFFFFFFFFFFFFFFFFFFFFFFFFFFFFFFFFFF AND DUP2 MSTORE PUSH1 0x20 ADD SWAP1 DUP2 MSTORE PUSH1 0x20 ADD PUSH0 KECCAK256 SLOAD PUSH2 0x2A7 SWAP2 SWAP1 PUSH2 0x5EE JUMP JUMPDEST PUSH1 0x4 PUSH0 DUP5 PUSH20 0xFFFFFFFFFFFFFFFFFFFFFFFFFFFFFFFFFFFFFFFF AND PUSH20 0xFFFFFFFFFFFFFFFFFFFFFFFFFFFFFFFFFFFFFFFF AND DUP2 MSTORE PUSH1 0x20 ADD SWAP1 DUP2 MSTORE PUSH1 0x20 ADD PUSH0 KECCAK256 DUP2 SWAP1 SSTORE POP DUP1 PUSH1 0x2 PUSH0 DUP3 DUP3 SLOAD PUSH2 0x2F9 SWAP2 SWAP1 PUSH2 0x58E JUMP JUMPDEST SWAP3 POP POP DUP2 SWAP1 SSTORE POP POP POP JUMP JUMPDEST PUSH0 SLOAD DUP2 JUMP JUMPDEST DUP1 PUSH0 SLOAD PUSH1 0x2 SLOAD PUSH1 0x1 SLOAD DUP4 PUSH2 0x31D SWAP2 SWAP1 PUSH2 0x61E JUMP JUMPDEST PUSH2 0x327 SWAP2 SWAP1 PUSH2 0x65F JUMP JUMPDEST GT ISZERO PUSH2 0x331 JUMPI PUSH0 DUP1 REVERT JUMPDEST PUSH0 PUSH1 0x1 SLOAD DUP4 PUSH2 0x340 SWAP2 SWAP1 PUSH2 0x61E JUMP JUMPDEST SWAP1 POP DUP1 PUSH1 0x3 PUSH0 DUP7 PUSH20 0xFFFFFFFFFFFFFFFFFFFFFFFFFFFFFFFFFFFFFFFF AND PUSH20 0xFFFFFFFFFFFFFFFFFFFFFFFFFFFFFFFFFFFFFFFF AND DUP2 MSTORE PUSH1 0x20 ADD SWAP1 DUP2 MSTORE PUSH1 0x20 ADD PUSH0 KECCAK256 PUSH0 DUP3 DUP3 SLOAD PUSH2 0x38E SWAP2 SWAP1 PUSH2 0x65F JUMP JUMPDEST SWAP3 POP POP DUP2 SWAP1 SSTORE POP PUSH2 0x3E8 PUSH1 0x3 PUSH0 DUP7 PUSH20 0xFFFFFFFFFFFFFFFFFFFFFFFFFFFFFFFFFFFFFFFF AND PUSH20 0xFFFFFFFFFFFFFFFFFFFFFFFFFFFFFFFFFFFFFFFF AND DUP2 MSTORE PUSH1 0x20 ADD SWAP1 DUP2 MSTORE PUSH1 0x20 ADD PUSH0 KECCAK256 SLOAD PUSH2 0x3E0 SWAP2 SWAP1 PUSH2 0x5EE JUMP JUMPDEST PUSH1 0x4 PUSH0 DUP7 PUSH20 0xFFFFFFFFFFFFFFFFFFFFFFFFFFFFFFFFFFFFFFFF AND PUSH20 0xFFFFFFFFFFFFFFFFFFFFFFFFFFFFFFFFFFFFFFFF AND DUP2 MSTORE PUSH1 0x20 ADD SWAP1 DUP2 MSTORE PUSH1 0x20 ADD PUSH0 KECCAK256 DUP2 SWAP1 SSTORE POP DUP1 PUSH1 0x2 PUSH0 DUP3 DUP3 SLOAD PUSH2 0x432 SWAP2 SWAP1 PUSH2 0x65F JUMP JUMPDEST SWAP3 POP POP DUP2 SWAP1 SSTORE POP POP POP POP POP JUMP JUMPDEST PUSH0 DUP1 REVERT JUMPDEST PUSH0 PUSH20 0xFFFFFFFFFFFFFFFFFFFFFFFFFFFFFFFFFFFFFFFF DUP3 AND SWAP1 POP SWAP2 SWAP1 POP JUMP JUMPDEST PUSH0 PUSH2 0x46C DUP3 PUSH2 0x443 JUMP JUMPDEST SWAP1 POP SWAP2 SWAP1 POP JUMP JUMPDEST PUSH2 0x47C DUP2 PUSH2 0x462 JUMP JUMPDEST DUP2 EQ PUSH2 0x486 JUMPI PUSH0 DUP1 REVERT JUMPDEST POP JUMP JUMPDEST PUSH0 DUP2 CALLDATALOAD SWAP1 POP PUSH2 0x497 DUP2 PUSH2 0x473 JUMP JUMPDEST SWAP3 SWAP2 POP POP JUMP JUMPDEST PUSH0 PUSH1 0x20 DUP3 DUP5 SUB SLT ISZERO PUSH2 0x4B2 JUMPI PUSH2 0x4B1 PUSH2 0x43F JUMP JUMPDEST JUMPDEST PUSH0 PUSH2 0x4BF DUP5 DUP3 DUP6 ADD PUSH2 0x489 JUMP JUMPDEST SWAP2 POP POP SWAP3 SWAP2 POP POP JUMP JUMPDEST PUSH0 DUP2 SWAP1 POP SWAP2 SWAP1 POP JUMP JUMPDEST PUSH2 0x4DA DUP2 PUSH2 0x4C8 JUMP JUMPDEST DUP3 MSTORE POP POP JUMP JUMPDEST PUSH0 PUSH1 0x20 DUP3 ADD SWAP1 POP PUSH2 0x4F3 PUSH0 DUP4 ADD DUP5 PUSH2 0x4D1 JUMP JUMPDEST SWAP3 SWAP2 POP POP JUMP JUMPDEST PUSH2 0x502 DUP2 PUSH2 0x4C8 JUMP JUMPDEST DUP2 EQ PUSH2 0x50C JUMPI PUSH0 DUP1 REVERT JUMPDEST POP JUMP JUMPDEST PUSH0 DUP2 CALLDATALOAD SWAP1 POP PUSH2 0x51D DUP2 PUSH2 0x4F9 JUMP JUMPDEST SWAP3 SWAP2 POP POP JUMP JUMPDEST PUSH0 DUP1 PUSH1 0x40 DUP4 DUP6 SUB SLT ISZERO PUSH2 0x539 JUMPI PUSH2 0x538 PUSH2 0x43F JUMP JUMPDEST JUMPDEST PUSH0 PUSH2 0x546 DUP6 DUP3 DUP7 ADD PUSH2 0x489 JUMP JUMPDEST SWAP3 POP POP PUSH1 0x20 PUSH2 0x557 DUP6 DUP3 DUP7 ADD PUSH2 0x50F JUMP JUMPDEST SWAP2 POP POP SWAP3 POP SWAP3 SWAP1 POP JUMP JUMPDEST PUSH32 0x4E487B7100000000000000000000000000000000000000000000000000000000 PUSH0 MSTORE PUSH1 0x11 PUSH1 0x4 MSTORE PUSH1 0x24 PUSH0 REVERT JUMPDEST PUSH0 PUSH2 0x598 DUP3 PUSH2 0x4C8 JUMP JUMPDEST SWAP2 POP PUSH2 0x5A3 DUP4 PUSH2 0x4C8 JUMP JUMPDEST SWAP3 POP DUP3 DUP3 SUB SWAP1 POP DUP2 DUP2 GT ISZERO PUSH2 0x5BB JUMPI PUSH2 0x5BA PUSH2 0x561 JUMP JUMPDEST JUMPDEST SWAP3 SWAP2 POP POP JUMP JUMPDEST PUSH32 0x4E487B7100000000000000000000000000000000000000000000000000000000 PUSH0 MSTORE PUSH1 0x12 PUSH1 0x4 MSTORE PUSH1 0x24 PUSH0 REVERT JUMPDEST PUSH0 PUSH2 0x5F8 DUP3 PUSH2 0x4C8 JUMP JUMPDEST SWAP2 POP PUSH2 0x603 DUP4 PUSH2 0x4C8 JUMP JUMPDEST SWAP3 POP DUP3 PUSH2 0x613 JUMPI PUSH2 0x612 PUSH2 0x5C1 JUMP JUMPDEST JUMPDEST DUP3 DUP3 DIV SWAP1 POP SWAP3 SWAP2 POP POP JUMP JUMPDEST PUSH0 PUSH2 0x628 DUP3 PUSH2 0x4C8 JUMP JUMPDEST SWAP2 POP PUSH2 0x633 DUP4 PUSH2 0x4C8 JUMP JUMPDEST SWAP3 POP DUP3 DUP3 MUL PUSH2 0x641 DUP2 PUSH2 0x4C8 JUMP JUMPDEST SWAP2 POP DUP3 DUP3 DIV DUP5 EQ DUP4 ISZERO OR PUSH2 0x658 JUMPI PUSH2 0x657 PUSH2 0x561 JUMP JUMPDEST JUMPDEST POP SWAP3 SWAP2 POP POP JUMP JUMPDEST PUSH0 PUSH2 0x669 DUP3 PUSH2 0x4C8 JUMP JUMPDEST SWAP2 POP PUSH2 0x674 DUP4 PUSH2 0x4C8 JUMP JUMPDEST SWAP3 POP DUP3 DUP3 ADD SWAP1 POP DUP1 DUP3 GT ISZERO PUSH2 0x68C JUMPI PUSH2 0x68B PUSH2 0x561 JUMP JUMPDEST JUMPDEST SWAP3 SWAP2 POP POP JUMP INVALID LOG2 PUSH5 0x6970667358 0x22 SLT KECCAK256 PUSH31 0x68A190AC5A4FA174AE398C097AB44591FE229E70B9B01D9197EC371395B604 PUSH5 0x736F6C6343 STOP ADDMOD NOT STOP CALLER "
				},
				"gasEstimates": {
					"creation": {
						"codeDepositCost": "347200",
						"executionCost": "49600",
						"totalCost": "396800"
					},
					"external": {
						"buy_flitcoins(address,uint256)": "infinite",
						"equity_in_flitcoins(address)": "2874",
						"equity_in_usd(address)": "2830",
						"max_flitcoins()": "2468",
						"sell_flitcoins(address,uint256)": "infinite",
						"total_flitcoins_bought()": "2425",
						"usd_to_flitcoins()": "2448"
					}
				},
				"methodIdentifiers": {
					"buy_flitcoins(address,uint256)": "e5a408fd",
					"equity_in_flitcoins(address)": "26e880d4",
					"equity_in_usd(address)": "10c51c1b",
					"max_flitcoins()": "cb739c3b",
					"sell_flitcoins(address,uint256)": "85a60ba3",
					"total_flitcoins_bought()": "4f99b9b0",
					"usd_to_flitcoins()": "126cc9e2"
				}
			},
			"storageLayout": {
				"storage": [
					{
						"astId": 4,
						"contract": "contracts/flitcoin.sol:Flitcoin_ICO",
						"label": "max_flitcoins",
						"offset": 0,
						"slot": "0",
						"type": "t_uint256"
					},
					{
						"astId": 7,
						"contract": "contracts/flitcoin.sol:Flitcoin_ICO",
						"label": "usd_to_flitcoins",
						"offset": 0,
						"slot": "1",
						"type": "t_uint256"
					},
					{
						"astId": 10,
						"contract": "contracts/flitcoin.sol:Flitcoin_ICO",
						"label": "total_flitcoins_bought",
						"offset": 0,
						"slot": "2",
						"type": "t_uint256"
					},
					{
						"astId": 14,
						"contract": "contracts/flitcoin.sol:Flitcoin_ICO",
						"label": "equity_flitcoins",
						"offset": 0,
						"slot": "3",
						"type": "t_mapping(t_address,t_uint256)"
					},
					{
						"astId": 18,
						"contract": "contracts/flitcoin.sol:Flitcoin_ICO",
						"label": "equity_usd",
						"offset": 0,
						"slot": "4",
						"type": "t_mapping(t_address,t_uint256)"
					}
				],
				"types": {
					"t_address": {
						"encoding": "inplace",
						"label": "address",
						"numberOfBytes": "20"
					},
					"t_mapping(t_address,t_uint256)": {
						"encoding": "mapping",
						"key": "t_address",
						"label": "mapping(address => uint256)",
						"numberOfBytes": "32",
						"value": "t_uint256"
					},
					"t_uint256": {
						"encoding": "inplace",
						"label": "uint256",
						"numberOfBytes": "32"
					}
				}
			},
			"userdoc": {
				"kind": "user",
				"methods": {},
				"version": 1
			}
		}
	}
}