{
  "contractName": "Flitcoin_ICO",
  "abi": [
    {
      "inputs": [],
      "name": "max_flitcoins",
      "outputs": [
        {
          "internalType": "uint256",
          "name": "",
          "type": "uint256"
        }
      ],
      "stateMutability": "view",
      "type": "function",
      "constant": true
    },
    {
      "inputs": [],
      "name": "total_flitcoins_bought",
      "outputs": [
        {
          "internalType": "uint256",
          "name": "",
          "type": "uint256"
        }
      ],
      "stateMutability": "view",
      "type": "function",
      "constant": true
    },
    {
      "inputs": [],
      "name": "usd_to_flitcoins",
      "outputs": [
        {
          "internalType": "uint256",
          "name": "",
          "type": "uint256"
        }
      ],
      "stateMutability": "view",
      "type": "function",
      "constant": true
    },
    {
      "inputs": [
        {
          "internalType": "address",
          "name": "investor",
          "type": "address"
        }
      ],
      "name": "equity_in_flitcoins",
      "outputs": [
        {
          "internalType": "uint256",
          "name": "",
          "type": "uint256"
        }
      ],
      "stateMutability": "view",
      "type": "function",
      "constant": true
    },
    {
      "inputs": [
        {
          "internalType": "address",
          "name": "investor",
          "type": "address"
        }
      ],
      "name": "equity_in_usd",
      "outputs": [
        {
          "internalType": "uint256",
          "name": "",
          "type": "uint256"
        }
      ],
      "stateMutability": "view",
      "type": "function",
      "constant": true
    },
    {
      "inputs": [
        {
          "internalType": "address",
          "name": "investor",
          "type": "address"
        },
        {
          "internalType": "uint256",
          "name": "usd_invested",
          "type": "uint256"
        }
      ],
      "name": "buy_flitcoins",
      "outputs": [],
      "stateMutability": "nonpayable",
      "type": "function"
    },
    {
      "inputs": [
        {
          "internalType": "address",
          "name": "investor",
          "type": "address"
        },
        {
          "internalType": "uint256",
          "name": "flitcoins_sold",
          "type": "uint256"
        }
      ],
      "name": "sell_flitcoins",
      "outputs": [],
      "stateMutability": "nonpayable",
      "type": "function"
    },
    {
      "inputs": [],
      "name": "deposit_usd",
      "outputs": [],
      "stateMutability": "payable",
      "type": "function",
      "payable": true
    },
    {
      "inputs": [],
      "name": "test",
      "outputs": [
        {
          "internalType": "string",
          "name": "",
          "type": "string"
        }
      ],
      "stateMutability": "pure",
      "type": "function",
      "constant": true
    }
  ],
  "bytecode": "0x6080604052620f42406000556101f4600155600060025534801561002257600080fd5b506109e0806100326000396000f3fe6080604052600436106100865760003560e01c80634f99b9b0116100595780634f99b9b01461013a57806385a60ba314610165578063cb739c3b1461018e578063e5a408fd146101b9578063f8a8fd6d146101e257610086565b806307a84d9d1461008b57806310c51c1b14610095578063126cc9e2146100d257806326e880d4146100fd575b600080fd5b61009361020d565b005b3480156100a157600080fd5b506100bc60048036038101906100b791906105fd565b6102ae565b6040516100c99190610752565b60405180910390f35b3480156100de57600080fd5b506100e76102f7565b6040516100f49190610752565b60405180910390f35b34801561010957600080fd5b50610124600480360381019061011f91906105fd565b6102fd565b6040516101319190610752565b60405180910390f35b34801561014657600080fd5b5061014f610346565b60405161015c9190610752565b60405180910390f35b34801561017157600080fd5b5061018c60048036038101906101879190610626565b61034c565b005b34801561019a57600080fd5b506101a361044f565b6040516101b09190610752565b60405180910390f35b3480156101c557600080fd5b506101e060048036038101906101db9190610626565b610455565b005b3480156101ee57600080fd5b506101f7610596565b6040516102049190610710565b60405180910390f35b60003411610250576040517f08c379a000000000000000000000000000000000000000000000000000000000815260040161024790610732565b60405180910390fd5b600034905080600460003373ffffffffffffffffffffffffffffffffffffffff1673ffffffffffffffffffffffffffffffffffffffff16815260200190815260200160002060008282546102a49190610789565b9250508190555050565b6000600460008373ffffffffffffffffffffffffffffffffffffffff1673ffffffffffffffffffffffffffffffffffffffff168152602001908152602001600020549050919050565b60015481565b6000600360008373ffffffffffffffffffffffffffffffffffffffff1673ffffffffffffffffffffffffffffffffffffffff168152602001908152602001600020549050919050565b60025481565b80600360008473ffffffffffffffffffffffffffffffffffffffff1673ffffffffffffffffffffffffffffffffffffffff168152602001908152602001600020600082825461039b919061086a565b925050819055506103e8600360008473ffffffffffffffffffffffffffffffffffffffff1673ffffffffffffffffffffffffffffffffffffffff168152602001908152602001600020546103ef91906107df565b600460008473ffffffffffffffffffffffffffffffffffffffff1673ffffffffffffffffffffffffffffffffffffffff168152602001908152602001600020819055508060026000828254610444919061086a565b925050819055505050565b60005481565b806000546002546001548361046a9190610810565b6104749190610789565b111561047f57600080fd5b60006001548361048f9190610810565b905080600360008673ffffffffffffffffffffffffffffffffffffffff1673ffffffffffffffffffffffffffffffffffffffff16815260200190815260200160002060008282546104e09190610789565b925050819055506103e8600360008673ffffffffffffffffffffffffffffffffffffffff1673ffffffffffffffffffffffffffffffffffffffff1681526020019081526020016000205461053491906107df565b600460008673ffffffffffffffffffffffffffffffffffffffff1673ffffffffffffffffffffffffffffffffffffffff1681526020019081526020016000208190555080600260008282546105899190610789565b9250508190555050505050565b60606040518060400160405280600b81526020017f7465737420776f726b6564000000000000000000000000000000000000000000815250905090565b6000813590506105e28161097c565b92915050565b6000813590506105f781610993565b92915050565b60006020828403121561060f57600080fd5b600061061d848285016105d3565b91505092915050565b6000806040838503121561063957600080fd5b6000610647858286016105d3565b9250506020610658858286016105e8565b9150509250929050565b600061066d8261076d565b6106778185610778565b93506106878185602086016108da565b6106908161096b565b840191505092915050565b60006106a8602183610778565b91507f4465626520656e7669617220756e2076616c6f72206d61796f7220612063657260008301527f6f000000000000000000000000000000000000000000000000000000000000006020830152604082019050919050565b61070a816108d0565b82525050565b6000602082019050818103600083015261072a8184610662565b905092915050565b6000602082019050818103600083015261074b8161069b565b9050919050565b60006020820190506107676000830184610701565b92915050565b600081519050919050565b600082825260208201905092915050565b6000610794826108d0565b915061079f836108d0565b9250827fffffffffffffffffffffffffffffffffffffffffffffffffffffffffffffffff038211156107d4576107d361090d565b5b828201905092915050565b60006107ea826108d0565b91506107f5836108d0565b9250826108055761080461093c565b5b828204905092915050565b600061081b826108d0565b9150610826836108d0565b9250817fffffffffffffffffffffffffffffffffffffffffffffffffffffffffffffffff048311821515161561085f5761085e61090d565b5b828202905092915050565b6000610875826108d0565b9150610880836108d0565b9250828210156108935761089261090d565b5b828203905092915050565b60006108a9826108b0565b9050919050565b600073ffffffffffffffffffffffffffffffffffffffff82169050919050565b6000819050919050565b60005b838110156108f85780820151818401526020810190506108dd565b83811115610907576000848401525b50505050565b7f4e487b7100000000000000000000000000000000000000000000000000000000600052601160045260246000fd5b7f4e487b7100000000000000000000000000000000000000000000000000000000600052601260045260246000fd5b6000601f19601f8301169050919050565b6109858161089e565b811461099057600080fd5b50565b61099c816108d0565b81146109a757600080fd5b5056fea264697066735822122061f948542ed07c7555ac9f2ed4ce1bcd12aa47ff10e189c09270ed68ea40427664736f6c63430008000033",
  "immutableReferences": {},
  "source": "//Flitcoin ICO\n\n// SPDX-License-Identifier: MIT\n//Version compiler\npragma solidity ^0.8.0;\n\ncontract Flitcoin_ICO {\n    //Nmero mximo de Flitcoins a la venta\n    uint public max_flitcoins = 1000000;\n    \n    //Tasa de conversin de FLT a USD\n    uint public usd_to_flitcoins = 500;\n\n    //Nmero total de FLT comprados por los inversionistas\n    uint public total_flitcoins_bought = 0;\n\n    //Mapeo de direccin de inversionista a activos en Flitcoins y USD\n    mapping(address => uint) equity_flitcoins; //la direccin del inversionista va a ser mapeada como un entero\n    mapping(address => uint) equity_usd;\n\n    //chequeando si el inversionista puede comprar tokens\n    modifier can_buy_flitcoins(uint usd_invested) { //antes de confirmar la compra de flitcoins por la cantidad de dlares que ingresa, con esto chequeamos primeramente que pueda hacerlo\n        require(usd_invested * usd_to_flitcoins + total_flitcoins_bought <= max_flitcoins);\n        _; //esto significa que las funciones solo sern aplicadas si la condicin es verdadera, si puede comprar\n    }\n\n    //obteniendo capital invertido en tokens\n    function equity_in_flitcoins(address investor) external view returns(uint) { //'external constant' lo ponemos porque no es particular de nuestro smart contract, viene de una fuerza externa\n        return equity_flitcoins[investor];\n    }\n\n    //obteniendo el capital invertido en dlares(USD)\n    function equity_in_usd(address investor) external view returns(uint) {\n        return equity_usd[investor];\n    }\n\n    //comprando tokens\n    function buy_flitcoins(address investor, uint usd_invested) external can_buy_flitcoins(usd_invested) { //antes de entrar a la funcin usamos el modificador para verificar si el accionista puede comprar flitcoins tomando como parmetro el usd_invested\n        //actualizamos el capital en tokens flt del inversionista\n        uint flitcoins_bought = usd_invested * usd_to_flitcoins; //los flt comprados es = a la cantidad de usd invertidos * la cantidad de flt que se pueden comprar\n        equity_flitcoins[investor] += flitcoins_bought;\n\n        //actualizamos el capital en equity usd\n        equity_usd[investor] = equity_flitcoins[investor] / 1000; //queremos saber cuanto tiene el inversionista en dlares\n\n        //actualizamos el total de tokens comprados por el inversionista\n        total_flitcoins_bought += flitcoins_bought;\n    }\n\n    //vendiendo tokens\n    function sell_flitcoins(address investor, uint flitcoins_sold) external {\n        //restamos la cantidad de flt vendidos por el inversionista de su cuenta\n        equity_flitcoins[investor] -= flitcoins_sold;\n\n        //actualizamos el capital en equity usd\n        equity_usd[investor] = equity_flitcoins[investor] / 1000; //queremos saber cuanto tiene el inversionista en dlares\n\n        //actualizamos el total de tokens vendidos por el inversionista\n        total_flitcoins_bought -= flitcoins_sold;\n    }\n\n    // Depositando fondos en USD (en realidad, en Ether)\n    function deposit_usd() external payable {\n        require(msg.value > 0, \"Debe enviar un valor mayor a cero\");\n        uint usd_amount = msg.value; // Suponiendo que 1 Ether equivale a 1 USD\n        equity_usd[msg.sender] += usd_amount;\n        // Aqu puedes realizar otras acciones, como emitir un evento o notificar al usuario sobre el depsito.\n    }\n\n    function test() public pure returns(string memory) {\n        return \"test worked\";\n    }\n}",
  "sourcePath": "/home/arieldiaz/Desktop/dev/code/personal/blockchain_flit/contracts/flitcoin.sol",
  "compiler": {
    "name": "solc",
    "version": "0.8.0+commit.c7dfd78e.Emscripten.clang"
  },
  "schemaVersion": "3.4.16",
  "updatedAt": "2024-03-24T16:58:42.108Z",
  "networkType": "ethereum",
  "devdoc": {
    "kind": "dev",
    "methods": {},
    "version": 1
  },
  "userdoc": {
    "kind": "user",
    "methods": {},
    "version": 1
  }
}